{
  "_format": "hh-sol-artifact-1",
  "contractName": "Twitter",
  "sourceName": "contracts/Twitter.sol",
  "abi": [
    {
      "anonymous": false,
      "inputs": [
        {
          "indexed": false,
          "internalType": "uint256",
          "name": "tweetId",
          "type": "uint256"
        },
        {
          "indexed": false,
          "internalType": "string",
          "name": "content",
          "type": "string"
        },
        {
          "indexed": false,
          "internalType": "uint256",
          "name": "timestamp",
          "type": "uint256"
        },
        {
          "indexed": false,
          "internalType": "uint256",
          "name": "userId",
          "type": "uint256"
        }
      ],
      "name": "TweetCreated",
      "type": "event"
    },
    {
      "inputs": [
        {
          "internalType": "string",
          "name": "_tweetContent",
          "type": "string"
        }
      ],
      "name": "createTweet",
      "outputs": [
        {
          "components": [
            {
              "internalType": "uint256",
              "name": "tweetId",
              "type": "uint256"
            },
            {
              "internalType": "string",
              "name": "content",
              "type": "string"
            },
            {
              "internalType": "uint256",
              "name": "timestamp",
              "type": "uint256"
            },
            {
              "internalType": "uint256",
              "name": "userId",
              "type": "uint256"
            }
          ],
          "internalType": "struct Twitter.Tweet",
          "name": "",
          "type": "tuple"
        }
      ],
      "stateMutability": "nonpayable",
      "type": "function"
    },
    {
      "inputs": [],
      "name": "globalTweetId",
      "outputs": [
        {
          "internalType": "uint256",
          "name": "",
          "type": "uint256"
        }
      ],
      "stateMutability": "view",
      "type": "function"
    },
    {
      "inputs": [],
      "name": "globalUserId",
      "outputs": [
        {
          "internalType": "uint256",
          "name": "",
          "type": "uint256"
        }
      ],
      "stateMutability": "view",
      "type": "function"
    },
    {
      "inputs": [],
      "name": "listAllTweets",
      "outputs": [
        {
          "components": [
            {
              "internalType": "uint256",
              "name": "tweetId",
              "type": "uint256"
            },
            {
              "internalType": "string",
              "name": "content",
              "type": "string"
            },
            {
              "internalType": "uint256",
              "name": "timestamp",
              "type": "uint256"
            },
            {
              "internalType": "uint256",
              "name": "userId",
              "type": "uint256"
            }
          ],
          "internalType": "struct Twitter.Tweet[]",
          "name": "",
          "type": "tuple[]"
        }
      ],
      "stateMutability": "view",
      "type": "function"
    },
    {
      "inputs": [],
      "name": "listUserTweets",
      "outputs": [
        {
          "components": [
            {
              "internalType": "uint256",
              "name": "tweetId",
              "type": "uint256"
            },
            {
              "internalType": "string",
              "name": "content",
              "type": "string"
            },
            {
              "internalType": "uint256",
              "name": "timestamp",
              "type": "uint256"
            },
            {
              "internalType": "uint256",
              "name": "userId",
              "type": "uint256"
            }
          ],
          "internalType": "struct Twitter.Tweet[]",
          "name": "",
          "type": "tuple[]"
        }
      ],
      "stateMutability": "view",
      "type": "function"
    },
    {
      "inputs": [],
      "name": "myProfile",
      "outputs": [
        {
          "components": [
            {
              "internalType": "uint256",
              "name": "userId",
              "type": "uint256"
            },
            {
              "internalType": "string",
              "name": "name",
              "type": "string"
            },
            {
              "internalType": "string",
              "name": "imageUrl",
              "type": "string"
            },
            {
              "internalType": "bool",
              "name": "isActive",
              "type": "bool"
            }
          ],
          "internalType": "struct Twitter.User",
          "name": "",
          "type": "tuple"
        }
      ],
      "stateMutability": "view",
      "type": "function"
    },
    {
      "inputs": [
        {
          "internalType": "string",
          "name": "_name",
          "type": "string"
        },
        {
          "internalType": "string",
          "name": "_url",
          "type": "string"
        }
      ],
      "name": "signup",
      "outputs": [
        {
          "internalType": "uint256",
          "name": "id",
          "type": "uint256"
        }
      ],
      "stateMutability": "nonpayable",
      "type": "function"
    },
    {
      "inputs": [
        {
          "internalType": "address",
          "name": "",
          "type": "address"
        },
        {
          "internalType": "uint256",
          "name": "",
          "type": "uint256"
        }
      ],
      "name": "tweetIndex",
      "outputs": [
        {
          "internalType": "uint256",
          "name": "",
          "type": "uint256"
        }
      ],
      "stateMutability": "view",
      "type": "function"
    },
    {
      "inputs": [
        {
          "internalType": "uint256",
          "name": "",
          "type": "uint256"
        }
      ],
      "name": "tweets",
      "outputs": [
        {
          "internalType": "uint256",
          "name": "tweetId",
          "type": "uint256"
        },
        {
          "internalType": "string",
          "name": "content",
          "type": "string"
        },
        {
          "internalType": "uint256",
          "name": "timestamp",
          "type": "uint256"
        },
        {
          "internalType": "uint256",
          "name": "userId",
          "type": "uint256"
        }
      ],
      "stateMutability": "view",
      "type": "function"
    },
    {
      "inputs": [
        {
          "internalType": "uint256",
          "name": "",
          "type": "uint256"
        }
      ],
      "name": "userAddressList",
      "outputs": [
        {
          "internalType": "address",
          "name": "",
          "type": "address"
        }
      ],
      "stateMutability": "view",
      "type": "function"
    },
    {
      "inputs": [
        {
          "internalType": "address",
          "name": "",
          "type": "address"
        }
      ],
      "name": "users",
      "outputs": [
        {
          "internalType": "uint256",
          "name": "userId",
          "type": "uint256"
        },
        {
          "internalType": "string",
          "name": "name",
          "type": "string"
        },
        {
          "internalType": "string",
          "name": "imageUrl",
          "type": "string"
        },
        {
          "internalType": "bool",
          "name": "isActive",
          "type": "bool"
        }
      ],
      "stateMutability": "view",
      "type": "function"
    }
  ],
  "bytecode": "0x60806040526001600355600060055534801561001a57600080fd5b50611aa98061002a6000396000f3fe608060405234801561001057600080fd5b50600436106100a95760003560e01c8063965d406711610071578063965d406714610168578063a64699a314610198578063a87430ba146101c8578063dcff4d65146101fb578063e8d857b014610219578063f23133821461024c576100a9565b8063350c2be2146100ae57806347e70e64146100cc5780634d6f7b8c146100fc57806351fed40e1461011a5780637c9cd2bc14610138575b600080fd5b6100b661026a565b6040516100c391906110e7565b60405180910390f35b6100e660048036038101906100e19190611252565b61040a565b6040516100f391906112d9565b60405180910390f35b610104610672565b60405161011191906112d9565b60405180910390f35b610122610678565b60405161012f91906112d9565b60405180910390f35b610152600480360381019061014d91906112f4565b61067e565b60405161015f91906113a0565b60405180910390f35b610182600480360381019061017d919061144c565b6108fe565b60405161018f91906112d9565b60405180910390f35b6101b260048036038101906101ad919061148c565b61092f565b6040516101bf91906114c8565b60405180910390f35b6101e260048036038101906101dd91906114e3565b61096e565b6040516101f29493929190611569565b60405180910390f35b610203610abb565b60405161021091906116e1565b60405180910390f35b610233600480360381019061022e919061148c565b610bca565b6040516102439493929190611703565b60405180910390f35b610254610c92565b60405161026191906116e1565b60405180910390f35b610272610ebb565b600160003373ffffffffffffffffffffffffffffffffffffffff1673ffffffffffffffffffffffffffffffffffffffff168152602001908152602001600020604051806080016040529081600082015481526020016001820180546102d69061177e565b80601f01602080910402602001604051908101604052809291908181526020018280546103029061177e565b801561034f5780601f106103245761010080835404028352916020019161034f565b820191906000526020600020905b81548152906001019060200180831161033257829003601f168201915b505050505081526020016002820180546103689061177e565b80601f01602080910402602001604051908101604052809291908181526020018280546103949061177e565b80156103e15780601f106103b6576101008083540402835291602001916103e1565b820191906000526020600020905b8154815290600101906020018083116103c457829003601f168201915b505050505081526020016003820160009054906101000a900460ff161515151581525050905090565b6000600160003373ffffffffffffffffffffffffffffffffffffffff1673ffffffffffffffffffffffffffffffffffffffff16815260200190815260200160002060030160009054906101000a900460ff161561049c576040517f08c379a0000000000000000000000000000000000000000000000000000000008152600401610493906117fc565b60405180910390fd5b60008351116104e0576040517f08c379a00000000000000000000000000000000000000000000000000000000081526004016104d790611868565b60405180910390fd5b6000825111610524576040517f08c379a000000000000000000000000000000000000000000000000000000000815260040161051b906118d4565b60405180910390fd5b6040518060800160405280600354815260200184815260200183815260200160011515815250600160003373ffffffffffffffffffffffffffffffffffffffff1673ffffffffffffffffffffffffffffffffffffffff1681526020019081526020016000206000820151816000015560208201518160010190805190602001906105af929190610ee5565b5060408201518160020190805190602001906105cc929190610ee5565b5060608201518160030160006101000a81548160ff0219169083151502179055509050506002339080600181540180825580915050600190039060005260206000200160009091909190916101000a81548173ffffffffffffffffffffffffffffffffffffffff021916908373ffffffffffffffffffffffffffffffffffffffff1602179055506003600081548092919061066690611923565b91905055905092915050565b60035481565b60055481565b610686610f6b565b600160003373ffffffffffffffffffffffffffffffffffffffff1673ffffffffffffffffffffffffffffffffffffffff16815260200190815260200160002060030160009054906101000a900460ff16610715576040517f08c379a000000000000000000000000000000000000000000000000000000000815260040161070c906119b8565b60405180910390fd5b6000825111610759576040517f08c379a000000000000000000000000000000000000000000000000000000000815260040161075090611a24565b60405180910390fd5b6000600160003373ffffffffffffffffffffffffffffffffffffffff1673ffffffffffffffffffffffffffffffffffffffff1681526020019081526020016000206000015490506000803373ffffffffffffffffffffffffffffffffffffffff1673ffffffffffffffffffffffffffffffffffffffff1681526020019081526020016000206005549080600181540180825580915050600190039060005260206000200160009091909190915055600060405180608001604052806005600081548092919061082790611923565b9190505581526020018581526020014281526020018381525090506004819080600181540180825580915050600190039060005260206000209060040201600090919091909150600082015181600001556020820151816001019080519060200190610894929190610ee5565b50604082015181600201556060820151816003015550507f525ab91a97a23e874a59e02c149b789553df0901e1ab25b570058e5e502c120e816000015182602001518360400151856040516108ec9493929190611703565b60405180910390a18092505050919050565b6000602052816000526040600020818154811061091a57600080fd5b90600052602060002001600091509150505481565b6002818154811061093f57600080fd5b906000526020600020016000915054906101000a900473ffffffffffffffffffffffffffffffffffffffff1681565b60016020528060005260406000206000915090508060000154908060010180546109979061177e565b80601f01602080910402602001604051908101604052809291908181526020018280546109c39061177e565b8015610a105780601f106109e557610100808354040283529160200191610a10565b820191906000526020600020905b8154815290600101906020018083116109f357829003601f168201915b505050505090806002018054610a259061177e565b80601f0160208091040260200160405190810160405280929190818152602001828054610a519061177e565b8015610a9e5780601f10610a7357610100808354040283529160200191610a9e565b820191906000526020600020905b815481529060010190602001808311610a8157829003601f168201915b5050505050908060030160009054906101000a900460ff16905084565b60606004805480602002602001604051908101604052809291908181526020016000905b82821015610bc1578382906000526020600020906004020160405180608001604052908160008201548152602001600182018054610b1c9061177e565b80601f0160208091040260200160405190810160405280929190818152602001828054610b489061177e565b8015610b955780601f10610b6a57610100808354040283529160200191610b95565b820191906000526020600020905b815481529060010190602001808311610b7857829003601f168201915b505050505081526020016002820154815260200160038201548152505081526020019060010190610adf565b50505050905090565b60048181548110610bda57600080fd5b9060005260206000209060040201600091509050806000015490806001018054610c039061177e565b80601f0160208091040260200160405190810160405280929190818152602001828054610c2f9061177e565b8015610c7c5780601f10610c5157610100808354040283529160200191610c7c565b820191906000526020600020905b815481529060010190602001808311610c5f57829003601f168201915b5050505050908060020154908060030154905084565b606060008060003373ffffffffffffffffffffffffffffffffffffffff1673ffffffffffffffffffffffffffffffffffffffff168152602001908152602001600020805480602002602001604051908101604052809291908181526020018280548015610d1e57602002820191906000526020600020905b815481526020019060010190808311610d0a575b505050505090506000815167ffffffffffffffff811115610d4257610d41611127565b5b604051908082528060200260200182016040528015610d7b57816020015b610d68610f6b565b815260200190600190039081610d605790505b50905060005b8251811015610eb2576004838281518110610d9f57610d9e611a44565b5b602002602001015181548110610db857610db7611a44565b5b906000526020600020906004020160405180608001604052908160008201548152602001600182018054610deb9061177e565b80601f0160208091040260200160405190810160405280929190818152602001828054610e179061177e565b8015610e645780601f10610e3957610100808354040283529160200191610e64565b820191906000526020600020905b815481529060010190602001808311610e4757829003601f168201915b5050505050815260200160028201548152602001600382015481525050828281518110610e9457610e93611a44565b5b60200260200101819052508080610eaa90611923565b915050610d81565b50809250505090565b60405180608001604052806000815260200160608152602001606081526020016000151581525090565b828054610ef19061177e565b90600052602060002090601f016020900481019282610f135760008555610f5a565b82601f10610f2c57805160ff1916838001178555610f5a565b82800160010185558215610f5a579182015b82811115610f59578251825591602001919060010190610f3e565b5b509050610f679190610f93565b5090565b6040518060800160405280600081526020016060815260200160008152602001600081525090565b5b80821115610fac576000816000905550600101610f94565b5090565b6000819050919050565b610fc381610fb0565b82525050565b600081519050919050565b600082825260208201905092915050565b60005b83811015611003578082015181840152602081019050610fe8565b83811115611012576000848401525b50505050565b6000601f19601f8301169050919050565b600061103482610fc9565b61103e8185610fd4565b935061104e818560208601610fe5565b61105781611018565b840191505092915050565b60008115159050919050565b61107781611062565b82525050565b60006080830160008301516110956000860182610fba565b50602083015184820360208601526110ad8282611029565b915050604083015184820360408601526110c78282611029565b91505060608301516110dc606086018261106e565b508091505092915050565b60006020820190508181036000830152611101818461107d565b905092915050565b6000604051905090565b600080fd5b600080fd5b600080fd5b600080fd5b7f4e487b7100000000000000000000000000000000000000000000000000000000600052604160045260246000fd5b61115f82611018565b810181811067ffffffffffffffff8211171561117e5761117d611127565b5b80604052505050565b6000611191611109565b905061119d8282611156565b919050565b600067ffffffffffffffff8211156111bd576111bc611127565b5b6111c682611018565b9050602081019050919050565b82818337600083830152505050565b60006111f56111f0846111a2565b611187565b90508281526020810184848401111561121157611210611122565b5b61121c8482856111d3565b509392505050565b600082601f8301126112395761123861111d565b5b81356112498482602086016111e2565b91505092915050565b6000806040838503121561126957611268611113565b5b600083013567ffffffffffffffff81111561128757611286611118565b5b61129385828601611224565b925050602083013567ffffffffffffffff8111156112b4576112b3611118565b5b6112c085828601611224565b9150509250929050565b6112d381610fb0565b82525050565b60006020820190506112ee60008301846112ca565b92915050565b60006020828403121561130a57611309611113565b5b600082013567ffffffffffffffff81111561132857611327611118565b5b61133484828501611224565b91505092915050565b60006080830160008301516113556000860182610fba565b506020830151848203602086015261136d8282611029565b91505060408301516113826040860182610fba565b5060608301516113956060860182610fba565b508091505092915050565b600060208201905081810360008301526113ba818461133d565b905092915050565b600073ffffffffffffffffffffffffffffffffffffffff82169050919050565b60006113ed826113c2565b9050919050565b6113fd816113e2565b811461140857600080fd5b50565b60008135905061141a816113f4565b92915050565b61142981610fb0565b811461143457600080fd5b50565b60008135905061144681611420565b92915050565b6000806040838503121561146357611462611113565b5b60006114718582860161140b565b925050602061148285828601611437565b9150509250929050565b6000602082840312156114a2576114a1611113565b5b60006114b084828501611437565b91505092915050565b6114c2816113e2565b82525050565b60006020820190506114dd60008301846114b9565b92915050565b6000602082840312156114f9576114f8611113565b5b60006115078482850161140b565b91505092915050565b600082825260208201905092915050565b600061152c82610fc9565b6115368185611510565b9350611546818560208601610fe5565b61154f81611018565b840191505092915050565b61156381611062565b82525050565b600060808201905061157e60008301876112ca565b81810360208301526115908186611521565b905081810360408301526115a48185611521565b90506115b3606083018461155a565b95945050505050565b600081519050919050565b600082825260208201905092915050565b6000819050602082019050919050565b60006080830160008301516116006000860182610fba565b50602083015184820360208601526116188282611029565b915050604083015161162d6040860182610fba565b5060608301516116406060860182610fba565b508091505092915050565b600061165783836115e8565b905092915050565b6000602082019050919050565b6000611677826115bc565b61168181856115c7565b935083602082028501611693856115d8565b8060005b858110156116cf57848403895281516116b0858261164b565b94506116bb8361165f565b925060208a01995050600181019050611697565b50829750879550505050505092915050565b600060208201905081810360008301526116fb818461166c565b905092915050565b600060808201905061171860008301876112ca565b818103602083015261172a8186611521565b905061173960408301856112ca565b61174660608301846112ca565b95945050505050565b7f4e487b7100000000000000000000000000000000000000000000000000000000600052602260045260246000fd5b6000600282049050600182168061179657607f821691505b602082108114156117aa576117a961174f565b5b50919050565b7f796f752061726520616c72656479207369676e65642075700000000000000000600082015250565b60006117e6601883611510565b91506117f1826117b0565b602082019050919050565b60006020820190508181036000830152611815816117d9565b9050919050565b7f506c65617365207772697465206e616d65206265666f7265207375626d697400600082015250565b6000611852601f83611510565b915061185d8261181c565b602082019050919050565b6000602082019050818103600083015261188181611845565b9050919050565b7f4c696e6b2049465053204572726f720000000000000000000000000000000000600082015250565b60006118be600f83611510565b91506118c982611888565b602082019050919050565b600060208201905081810360008301526118ed816118b1565b9050919050565b7f4e487b7100000000000000000000000000000000000000000000000000000000600052601160045260246000fd5b600061192e82610fb0565b91507fffffffffffffffffffffffffffffffffffffffffffffffffffffffffffffffff821415611961576119606118f4565b5b600182019050919050565b7f506c65617365207369676e7570206265666f7265207477656574000000000000600082015250565b60006119a2601a83611510565b91506119ad8261196c565b602082019050919050565b600060208201905081810360008301526119d181611995565b9050919050565b7f506c65617365207772697465207477656574206265666f7265207375626d6974600082015250565b6000611a0e602083611510565b9150611a19826119d8565b602082019050919050565b60006020820190508181036000830152611a3d81611a01565b9050919050565b7f4e487b7100000000000000000000000000000000000000000000000000000000600052603260045260246000fdfea26469706673582212204c25322025c7988d4d8e6ee0fc1d04a3cc128526c573702e658db1a7de97c8f464736f6c634300080c0033",
  "linkReferences": {},
  "deployedLinkReferences": {}
}