{
  "_format": "hh-sol-artifact-1",
  "contractName": "Twitter",
  "sourceName": "contracts/Twitter.sol",
  "abi": [
    {
      "inputs": [
        {
          "internalType": "string",
          "name": "_tweetContent",
          "type": "string"
        }
      ],
      "name": "createTweet",
      "outputs": [],
      "stateMutability": "nonpayable",
      "type": "function"
    },
    {
      "inputs": [],
      "name": "globalTweetId",
      "outputs": [
        {
          "internalType": "uint256",
          "name": "",
          "type": "uint256"
        }
      ],
      "stateMutability": "view",
      "type": "function"
    },
    {
      "inputs": [],
      "name": "globalUserId",
      "outputs": [
        {
          "internalType": "uint256",
          "name": "",
          "type": "uint256"
        }
      ],
      "stateMutability": "view",
      "type": "function"
    },
    {
      "inputs": [],
      "name": "listAllTweets",
      "outputs": [
        {
          "components": [
            {
              "internalType": "uint256",
              "name": "tweetId",
              "type": "uint256"
            },
            {
              "internalType": "string",
              "name": "content",
              "type": "string"
            },
            {
              "internalType": "uint256",
              "name": "timestamp",
              "type": "uint256"
            },
            {
              "internalType": "uint256",
              "name": "userId",
              "type": "uint256"
            }
          ],
          "internalType": "struct Twitter.Tweet[]",
          "name": "",
          "type": "tuple[]"
        }
      ],
      "stateMutability": "view",
      "type": "function"
    },
    {
      "inputs": [],
      "name": "listUserTweets",
      "outputs": [
        {
          "components": [
            {
              "internalType": "uint256",
              "name": "tweetId",
              "type": "uint256"
            },
            {
              "internalType": "string",
              "name": "content",
              "type": "string"
            },
            {
              "internalType": "uint256",
              "name": "timestamp",
              "type": "uint256"
            },
            {
              "internalType": "uint256",
              "name": "userId",
              "type": "uint256"
            }
          ],
          "internalType": "struct Twitter.Tweet[]",
          "name": "",
          "type": "tuple[]"
        }
      ],
      "stateMutability": "view",
      "type": "function"
    },
    {
      "inputs": [],
      "name": "myProfile",
      "outputs": [
        {
          "components": [
            {
              "internalType": "uint256",
              "name": "userId",
              "type": "uint256"
            },
            {
              "internalType": "string",
              "name": "name",
              "type": "string"
            },
            {
              "internalType": "string",
              "name": "imageUrl",
              "type": "string"
            },
            {
              "internalType": "bool",
              "name": "isActive",
              "type": "bool"
            }
          ],
          "internalType": "struct Twitter.User",
          "name": "",
          "type": "tuple"
        }
      ],
      "stateMutability": "view",
      "type": "function"
    },
    {
      "inputs": [
        {
          "internalType": "string",
          "name": "_name",
          "type": "string"
        },
        {
          "internalType": "string",
          "name": "_url",
          "type": "string"
        }
      ],
      "name": "signup",
      "outputs": [
        {
          "internalType": "uint256",
          "name": "id",
          "type": "uint256"
        }
      ],
      "stateMutability": "nonpayable",
      "type": "function"
    },
    {
      "inputs": [
        {
          "internalType": "address",
          "name": "",
          "type": "address"
        },
        {
          "internalType": "uint256",
          "name": "",
          "type": "uint256"
        }
      ],
      "name": "tweetIndex",
      "outputs": [
        {
          "internalType": "uint256",
          "name": "",
          "type": "uint256"
        }
      ],
      "stateMutability": "view",
      "type": "function"
    },
    {
      "inputs": [
        {
          "internalType": "uint256",
          "name": "",
          "type": "uint256"
        }
      ],
      "name": "tweets",
      "outputs": [
        {
          "internalType": "uint256",
          "name": "tweetId",
          "type": "uint256"
        },
        {
          "internalType": "string",
          "name": "content",
          "type": "string"
        },
        {
          "internalType": "uint256",
          "name": "timestamp",
          "type": "uint256"
        },
        {
          "internalType": "uint256",
          "name": "userId",
          "type": "uint256"
        }
      ],
      "stateMutability": "view",
      "type": "function"
    },
    {
      "inputs": [
        {
          "internalType": "uint256",
          "name": "",
          "type": "uint256"
        }
      ],
      "name": "userAddressList",
      "outputs": [
        {
          "internalType": "address",
          "name": "",
          "type": "address"
        }
      ],
      "stateMutability": "view",
      "type": "function"
    },
    {
      "inputs": [
        {
          "internalType": "address",
          "name": "",
          "type": "address"
        }
      ],
      "name": "users",
      "outputs": [
        {
          "internalType": "uint256",
          "name": "userId",
          "type": "uint256"
        },
        {
          "internalType": "string",
          "name": "name",
          "type": "string"
        },
        {
          "internalType": "string",
          "name": "imageUrl",
          "type": "string"
        },
        {
          "internalType": "bool",
          "name": "isActive",
          "type": "bool"
        }
      ],
      "stateMutability": "view",
      "type": "function"
    }
  ],
  "bytecode": "0x60806040526001600355600060055534801561001a57600080fd5b506119b48061002a6000396000f3fe608060405234801561001057600080fd5b50600436106100a95760003560e01c8063965d406711610071578063965d406714610154578063a64699a314610184578063a87430ba146101b4578063dcff4d65146101e7578063e8d857b014610205578063f231338214610238576100a9565b8063350c2be2146100ae57806347e70e64146100cc5780634d6f7b8c146100fc57806351fed40e1461011a5780637c9cd2bc14610138575b600080fd5b6100b6610256565b6040516100c39190611077565b60405180910390f35b6100e660048036038101906100e191906111e2565b6103f6565b6040516100f39190611269565b60405180910390f35b61010461065e565b6040516101119190611269565b60405180910390f35b610122610664565b60405161012f9190611269565b60405180910390f35b610152600480360381019061014d9190611284565b61066a565b005b61016e60048036038101906101699190611357565b61088e565b60405161017b9190611269565b60405180910390f35b61019e60048036038101906101999190611397565b6108bf565b6040516101ab91906113d3565b60405180910390f35b6101ce60048036038101906101c991906113ee565b6108fe565b6040516101de9493929190611474565b60405180910390f35b6101ef610a4b565b6040516101fc91906115ec565b60405180910390f35b61021f600480360381019061021a9190611397565b610b5a565b60405161022f949392919061160e565b60405180910390f35b610240610c22565b60405161024d91906115ec565b60405180910390f35b61025e610e4b565b600160003373ffffffffffffffffffffffffffffffffffffffff1673ffffffffffffffffffffffffffffffffffffffff168152602001908152602001600020604051806080016040529081600082015481526020016001820180546102c290611689565b80601f01602080910402602001604051908101604052809291908181526020018280546102ee90611689565b801561033b5780601f106103105761010080835404028352916020019161033b565b820191906000526020600020905b81548152906001019060200180831161031e57829003601f168201915b5050505050815260200160028201805461035490611689565b80601f016020809104026020016040519081016040528092919081815260200182805461038090611689565b80156103cd5780601f106103a2576101008083540402835291602001916103cd565b820191906000526020600020905b8154815290600101906020018083116103b057829003601f168201915b505050505081526020016003820160009054906101000a900460ff161515151581525050905090565b6000600160003373ffffffffffffffffffffffffffffffffffffffff1673ffffffffffffffffffffffffffffffffffffffff16815260200190815260200160002060030160009054906101000a900460ff1615610488576040517f08c379a000000000000000000000000000000000000000000000000000000000815260040161047f90611707565b60405180910390fd5b60008351116104cc576040517f08c379a00000000000000000000000000000000000000000000000000000000081526004016104c390611773565b60405180910390fd5b6000825111610510576040517f08c379a0000000000000000000000000000000000000000000000000000000008152600401610507906117df565b60405180910390fd5b6040518060800160405280600354815260200184815260200183815260200160011515815250600160003373ffffffffffffffffffffffffffffffffffffffff1673ffffffffffffffffffffffffffffffffffffffff16815260200190815260200160002060008201518160000155602082015181600101908051906020019061059b929190610e75565b5060408201518160020190805190602001906105b8929190610e75565b5060608201518160030160006101000a81548160ff0219169083151502179055509050506002339080600181540180825580915050600190039060005260206000200160009091909190916101000a81548173ffffffffffffffffffffffffffffffffffffffff021916908373ffffffffffffffffffffffffffffffffffffffff160217905550600360008154809291906106529061182e565b91905055905092915050565b60035481565b60055481565b600160003373ffffffffffffffffffffffffffffffffffffffff1673ffffffffffffffffffffffffffffffffffffffff16815260200190815260200160002060030160009054906101000a900460ff166106f9576040517f08c379a00000000000000000000000000000000000000000000000000000000081526004016106f0906118c3565b60405180910390fd5b600081511161073d576040517f08c379a00000000000000000000000000000000000000000000000000000000081526004016107349061192f565b60405180910390fd5b6000600160003373ffffffffffffffffffffffffffffffffffffffff1673ffffffffffffffffffffffffffffffffffffffff1681526020019081526020016000206000015490506000803373ffffffffffffffffffffffffffffffffffffffff1673ffffffffffffffffffffffffffffffffffffffff1681526020019081526020016000206005549080600181540180825580915050600190039060005260206000200160009091909190915055600460405180608001604052806005600081548092919061080b9061182e565b919050558152602001848152602001428152602001838152509080600181540180825580915050600190039060005260206000209060040201600090919091909150600082015181600001556020820151816001019080519060200190610873929190610e75565b50604082015181600201556060820151816003015550505050565b600060205281600052604060002081815481106108aa57600080fd5b90600052602060002001600091509150505481565b600281815481106108cf57600080fd5b906000526020600020016000915054906101000a900473ffffffffffffffffffffffffffffffffffffffff1681565b600160205280600052604060002060009150905080600001549080600101805461092790611689565b80601f016020809104026020016040519081016040528092919081815260200182805461095390611689565b80156109a05780601f10610975576101008083540402835291602001916109a0565b820191906000526020600020905b81548152906001019060200180831161098357829003601f168201915b5050505050908060020180546109b590611689565b80601f01602080910402602001604051908101604052809291908181526020018280546109e190611689565b8015610a2e5780601f10610a0357610100808354040283529160200191610a2e565b820191906000526020600020905b815481529060010190602001808311610a1157829003601f168201915b5050505050908060030160009054906101000a900460ff16905084565b60606004805480602002602001604051908101604052809291908181526020016000905b82821015610b51578382906000526020600020906004020160405180608001604052908160008201548152602001600182018054610aac90611689565b80601f0160208091040260200160405190810160405280929190818152602001828054610ad890611689565b8015610b255780601f10610afa57610100808354040283529160200191610b25565b820191906000526020600020905b815481529060010190602001808311610b0857829003601f168201915b505050505081526020016002820154815260200160038201548152505081526020019060010190610a6f565b50505050905090565b60048181548110610b6a57600080fd5b9060005260206000209060040201600091509050806000015490806001018054610b9390611689565b80601f0160208091040260200160405190810160405280929190818152602001828054610bbf90611689565b8015610c0c5780601f10610be157610100808354040283529160200191610c0c565b820191906000526020600020905b815481529060010190602001808311610bef57829003601f168201915b5050505050908060020154908060030154905084565b606060008060003373ffffffffffffffffffffffffffffffffffffffff1673ffffffffffffffffffffffffffffffffffffffff168152602001908152602001600020805480602002602001604051908101604052809291908181526020018280548015610cae57602002820191906000526020600020905b815481526020019060010190808311610c9a575b505050505090506000815167ffffffffffffffff811115610cd257610cd16110b7565b5b604051908082528060200260200182016040528015610d0b57816020015b610cf8610efb565b815260200190600190039081610cf05790505b50905060005b8251811015610e42576004838281518110610d2f57610d2e61194f565b5b602002602001015181548110610d4857610d4761194f565b5b906000526020600020906004020160405180608001604052908160008201548152602001600182018054610d7b90611689565b80601f0160208091040260200160405190810160405280929190818152602001828054610da790611689565b8015610df45780601f10610dc957610100808354040283529160200191610df4565b820191906000526020600020905b815481529060010190602001808311610dd757829003601f168201915b5050505050815260200160028201548152602001600382015481525050828281518110610e2457610e2361194f565b5b60200260200101819052508080610e3a9061182e565b915050610d11565b50809250505090565b60405180608001604052806000815260200160608152602001606081526020016000151581525090565b828054610e8190611689565b90600052602060002090601f016020900481019282610ea35760008555610eea565b82601f10610ebc57805160ff1916838001178555610eea565b82800160010185558215610eea579182015b82811115610ee9578251825591602001919060010190610ece565b5b509050610ef79190610f23565b5090565b6040518060800160405280600081526020016060815260200160008152602001600081525090565b5b80821115610f3c576000816000905550600101610f24565b5090565b6000819050919050565b610f5381610f40565b82525050565b600081519050919050565b600082825260208201905092915050565b60005b83811015610f93578082015181840152602081019050610f78565b83811115610fa2576000848401525b50505050565b6000601f19601f8301169050919050565b6000610fc482610f59565b610fce8185610f64565b9350610fde818560208601610f75565b610fe781610fa8565b840191505092915050565b60008115159050919050565b61100781610ff2565b82525050565b60006080830160008301516110256000860182610f4a565b506020830151848203602086015261103d8282610fb9565b915050604083015184820360408601526110578282610fb9565b915050606083015161106c6060860182610ffe565b508091505092915050565b60006020820190508181036000830152611091818461100d565b905092915050565b6000604051905090565b600080fd5b600080fd5b600080fd5b600080fd5b7f4e487b7100000000000000000000000000000000000000000000000000000000600052604160045260246000fd5b6110ef82610fa8565b810181811067ffffffffffffffff8211171561110e5761110d6110b7565b5b80604052505050565b6000611121611099565b905061112d82826110e6565b919050565b600067ffffffffffffffff82111561114d5761114c6110b7565b5b61115682610fa8565b9050602081019050919050565b82818337600083830152505050565b600061118561118084611132565b611117565b9050828152602081018484840111156111a1576111a06110b2565b5b6111ac848285611163565b509392505050565b600082601f8301126111c9576111c86110ad565b5b81356111d9848260208601611172565b91505092915050565b600080604083850312156111f9576111f86110a3565b5b600083013567ffffffffffffffff811115611217576112166110a8565b5b611223858286016111b4565b925050602083013567ffffffffffffffff811115611244576112436110a8565b5b611250858286016111b4565b9150509250929050565b61126381610f40565b82525050565b600060208201905061127e600083018461125a565b92915050565b60006020828403121561129a576112996110a3565b5b600082013567ffffffffffffffff8111156112b8576112b76110a8565b5b6112c4848285016111b4565b91505092915050565b600073ffffffffffffffffffffffffffffffffffffffff82169050919050565b60006112f8826112cd565b9050919050565b611308816112ed565b811461131357600080fd5b50565b600081359050611325816112ff565b92915050565b61133481610f40565b811461133f57600080fd5b50565b6000813590506113518161132b565b92915050565b6000806040838503121561136e5761136d6110a3565b5b600061137c85828601611316565b925050602061138d85828601611342565b9150509250929050565b6000602082840312156113ad576113ac6110a3565b5b60006113bb84828501611342565b91505092915050565b6113cd816112ed565b82525050565b60006020820190506113e860008301846113c4565b92915050565b600060208284031215611404576114036110a3565b5b600061141284828501611316565b91505092915050565b600082825260208201905092915050565b600061143782610f59565b611441818561141b565b9350611451818560208601610f75565b61145a81610fa8565b840191505092915050565b61146e81610ff2565b82525050565b6000608082019050611489600083018761125a565b818103602083015261149b818661142c565b905081810360408301526114af818561142c565b90506114be6060830184611465565b95945050505050565b600081519050919050565b600082825260208201905092915050565b6000819050602082019050919050565b600060808301600083015161150b6000860182610f4a565b50602083015184820360208601526115238282610fb9565b91505060408301516115386040860182610f4a565b50606083015161154b6060860182610f4a565b508091505092915050565b600061156283836114f3565b905092915050565b6000602082019050919050565b6000611582826114c7565b61158c81856114d2565b93508360208202850161159e856114e3565b8060005b858110156115da57848403895281516115bb8582611556565b94506115c68361156a565b925060208a019950506001810190506115a2565b50829750879550505050505092915050565b600060208201905081810360008301526116068184611577565b905092915050565b6000608082019050611623600083018761125a565b8181036020830152611635818661142c565b9050611644604083018561125a565b611651606083018461125a565b95945050505050565b7f4e487b7100000000000000000000000000000000000000000000000000000000600052602260045260246000fd5b600060028204905060018216806116a157607f821691505b602082108114156116b5576116b461165a565b5b50919050565b7f796f752061726520616c72656479207369676e65642075700000000000000000600082015250565b60006116f160188361141b565b91506116fc826116bb565b602082019050919050565b60006020820190508181036000830152611720816116e4565b9050919050565b7f506c65617365207772697465206e616d65206265666f7265207375626d697400600082015250565b600061175d601f8361141b565b915061176882611727565b602082019050919050565b6000602082019050818103600083015261178c81611750565b9050919050565b7f4c696e6b2049465053204572726f720000000000000000000000000000000000600082015250565b60006117c9600f8361141b565b91506117d482611793565b602082019050919050565b600060208201905081810360008301526117f8816117bc565b9050919050565b7f4e487b7100000000000000000000000000000000000000000000000000000000600052601160045260246000fd5b600061183982610f40565b91507fffffffffffffffffffffffffffffffffffffffffffffffffffffffffffffffff82141561186c5761186b6117ff565b5b600182019050919050565b7f506c65617365207369676e7570206265666f7265207477656574000000000000600082015250565b60006118ad601a8361141b565b91506118b882611877565b602082019050919050565b600060208201905081810360008301526118dc816118a0565b9050919050565b7f506c65617365207772697465207477656574206265666f7265207375626d6974600082015250565b600061191960208361141b565b9150611924826118e3565b602082019050919050565b600060208201905081810360008301526119488161190c565b9050919050565b7f4e487b7100000000000000000000000000000000000000000000000000000000600052603260045260246000fdfea2646970667358221220946ed652982fd80dd55acdbba736d0f6503de29d9adefb50838484ab0a6dee1e64736f6c634300080c0033",
  "linkReferences": {},
  "deployedLinkReferences": {}
}